:100000000C943A000C9457000C9457000C94570031
:100010000C940E020C9457000C9457000C9457004B
:100020000C9457000C9457000C9457000C945700F4
:100030000C9457000C9457000C9457000C945700E4
:100040000C9457000C9457000C9470030C945700B8
:100050000C9457000C9457000C9457000C945700C4
:100060000C9457000C9457006364696E6F7073753D
:1000700078585B0011241FBECFEFD8E0DEBFCDBFA4
:1000800011E0A0E0B1E0E8EEF7E102C005900D92CA
:10009000A434B107D9F721E0A4E4B1E001C01D9276
:1000A000A437B207E1F70E94B2030C94F20B0C9450
:1000B00000003D9845982FEF89EF90E02150804057
:1000C0009040E1F700C0000008953D9A8FE599E067
:1000D0000197F1F700C000003D988BE091E0019797
:1000E000F1F700C0000035990AC0359BFECF87ECC0
:1000F00090E00197F1F700C0000081E0089580E0F2
:1001000008953D9A8AE08A95F1F700C03D988FEEF8
:1001100090E00197F1F700C0000008953D9A8FEE3E
:1001200090E00197F1F700C000003D989AE09A95A1
:10013000F1F700C008953D9A8AE08A95F1F700C072
:100140003D9895E49A95F1F7000096B1892F807259
:1001500095FD03C0359BFECF089583ED90E0019798
:10016000F1F700C0000081E00895CF93DF93D82F0E
:10017000C8E0D0FF03C00E94810002C00E948E0030
:10018000D695C150B1F7DF91CF9108951F93CF93CA
:10019000DF93D8E011E0C0E00E949B008111C12BE9
:1001A000110FD150C9F78C2FDF91CF911F91089576
:1001B000CF93DF93EC010E946500811112C00E9471
:1001C00065008823E9F08CEC0E94B5008EEB0E945C
:1001D000B5000E94C60088830E94C6008983C7E0DC
:1001E0000BC08CEC0E94B50084E40E94B5000E9414
:1001F0009B008823E1F3E3CF0E94C600C150E1F7E2
:10020000DF91CF9108958130910579F484E690E0F3
:100210000E948E0A8F3FD1F484E690E0909305010E
:100220008093040124E630E015C0892B91F488EC1A
:1002300090E00E948E0A8F3F49F488E290E090930C
:1002400003018093020128E230E004C0282F30E04F
:1002500001C00895C90108952091560130915701B8
:1002600080910401909105018217930710F45A9A26
:1002700004C02817390708F45A9820915601309184
:10028000570180910201909103012817390710F45A
:100290005B9A08958217930708F45B9808959BB1C1
:1002A0009F709BB99BB1807F892B8BB9299A299A22
:1002B00029980895CF93C82F28980E944F018C2F1A
:1002C0008295807F0E944F018FE39FE10197F1F7B4
:1002D00000C00000CF910895811102C080E801C0E4
:1002E00080EC860F0C945A0184B1836084B98AB182
:1002F000806F8AB98FE59AEE0197F1F700C0000090
:1003000080E30E944F018FE19EE40197F1F700C066
:10031000000080E30E944F018FED91E00197F1F71B
:1003200000C0000080E30E944F0180E20E944F0164
:100330008FE39FE10197F1F700C0000088E20E947F
:100340005A018FE39FE10197F1F700C000008FE0B1
:100350000E945A018FE39FE10197F1F700C000006E
:1003600081E00C945A01CF93C82F289A0E944F0124
:100370008C2F8295807F0E944F018FE39FE1019730
:10038000F1F700C00000CF910895CF93DF93EC0107
:100390008991882319F00E94B301FACFDF91CF91A0
:1003A000089588B1826188B98091680082608093E5
:1003B000680080916C00826180936C00789486B1B3
:1003C000982F927090935B01807180935801809177
:1003D0005801811107C080915B01811103C0109207
:1003E000590117C080915801811106C080915B01AD
:1003F000882311F081E00BC080915801882331F0EF
:1004000080915B01811102C082E001C083E0809392
:1004100059018091590180935A0108951F920F92BA
:100420000FB60F9211242F933F934F935F936F93C7
:100430007F938F939F93AF93BF93EF93FF9386B177
:10044000982F927090935B018071809358018091F6
:100450005801811107C080915B01811103C0109286
:100460005A0117C080915801811106C080915B012B
:10047000882311F081E00BC080915801882331F06E
:1004800080915B01811102C082E001C083E0809312
:100490005A0180915401882331F0809104019927F9
:1004A00087FD909508C080915501882341F0809187
:1004B000020190910301909348018093470180913C
:1004C0005901811109C080915A01813019F180913F
:1004D0005A01823091F528C080915901813049F448
:1004E00080915A018330B1F080915A01811125C069
:1004F0001BC080915901823049F480915A018823B0
:1005000049F080915A018330C1F40EC080915A01A4
:10051000823031F48091470190914801019609C0E1
:1005200080915A01813049F48091470190914801AE
:100530000197909348018093470180915A018093DD
:1005400059016091020188EC90E00E94960A609146
:10055000040184E690E00E94960A81E080934901BC
:10056000FF91EF91BF91AF919F918F917F916F918B
:100570005F914F913F912F910F900FBE0F901F9061
:10058000189587E690E09093C5008093C40086E0BC
:100590008093C200E1ECF0E08081886180838081FB
:1005A000806880833B9A439808959091C00095FF9E
:1005B000FCCF8093C600089540E050E020E030E09A
:1005C000F901E05AFE4F6081603364F0FC01E20FF4
:1005D000F31F60816A3334F4FA01EF58FE4F6083F1
:1005E0004F5F5F4F2F5F3F4F2630310549F78EE554
:1005F00091E09F938F9383E291E09F938F9381E7A4
:1006000091E09F938F930E94EE050F900F900F90B3
:100610000F900F900F900895CF93DF93EC01899185
:10062000882319F00E94D502FACFDF91CF91089567
:1006300080915C0190915D01019799F510925D01A7
:1006400010925C016BE081E00E946C0187E391E015
:100650000E94C5016BE081E00E946C0180E691E0A0
:100660000E94DC0280915F018F9380915E018F93E5
:1006700083E291E09F938F931F9284E08F9381E7B1
:1006800091E09F938F930E94BE0581E791E00E94C5
:10069000C5018DB79EB708960FB6F8949EBF0FBEE2
:1006A0008DBF809157018F93809156018F938DE379
:1006B00091E09F938F931F9286E08F9380E691E065
:1006C0009F938F930E94BE058DB79EB708960FB675
:1006D000F8949EBF0FBE8DBF80E691E00C940C0392
:1006E0001F920F920FB60F9211242F938F939F9307
:1006F000EF93FF932091C600E0914A01F0914B01E6
:10070000E05AFE4F208380914A0190914B0101965F
:1007100090934B0180934A0180916001803441F4B1
:10072000809161018B3241F0809161018D3221F025
:1007300010924B0110924A01243251F481E090E072
:1007400090935D0180935C0110924B0110924A01DD
:10075000FF91EF919F918F912F910F900FBE0F906E
:100760001F901895CF93DF93CDB7DEB764970FB680
:10077000F894DEBF0FBECDBF0E9474010E945900E5
:100780000E94C1020E94D10186E091E00E94C50151
:1007900060E082E00E946C0185E191E00E94C50169
:1007A0002FEF83ED90E3215080409040E1F700C0AF
:1007B000000081E00E945A0184B1877E84B985B12E
:1007C000886185B98AB18C608AB98DE191E00E9417
:1007D000C50181E090E00E940301809304019093A1
:1007E00005019F938F9303E211E01F930F931F92D4
:1007F00058E0D52EDF927E0129E0E20EF11CFF9237
:10080000EF920E94BE05C7010E94C50160E081E031
:100810000E946C0186E291E00E94C50180E090E0B8
:100820000E94030180930201909303019F938F9391
:100830001F930F931F92DF928E010F5F1F4F1F9325
:100840000F930E94BE05C8010E94C50169E080E0C7
:100850000E946C018BE291E00E94C50167E081E09B
:100860000E946C0180E391E00E94C5010FB6F894EC
:10087000DEBF0FBECDBF64E6662E79E0572EE4EFF3
:10088000AE2EBB24B39403E211E0F4E07F2EAEE47D
:10089000CA2EA1E0DA2E7E0191E1E90EF11CB8E248
:1008A0008B2E912C81E090E00E9403019093050132
:1008B0008093040180E090E00E9403019093030183
:1008C000809302010E942C016DE081E00E946C0186
:1008D0008CE491E00E94D80080914D01992787FD1A
:1008E0009095982F882720914C01822B689E90012B
:1008F000699E300D112444E0369527954A95E1F71D
:100900003093530120935201529EC001539E900D8B
:100910001124B5010E94AA05605E7F4F70935701B4
:10092000609356016DE080E00E946C018091570158
:100930008F93809156018F931F930F931F927F92F5
:10094000DF92CF920E94BE058EE491E00E94C50125
:1009500089E391E00E94C5010FB6F894DEBF0FBE97
:10096000CDBF1B9915C063E081E00E946C0185E357
:1009700091E00E94C50164E080E00E946C0181E288
:1009800091E00E94C50181E08093550110925401CD
:100990001C9915C064E080E00E946C0185E391E041
:1009A0000E94C50163E081E00E946C0181E291E058
:1009B0000E94C50181E080935401109255010E946C
:1009C000180380914901882309F4C1C0109249019C
:1009D00080915401882309F45BC065E080E00E94A7
:1009E0006C0189E391E00E94C50165E080E00E940E
:1009F0006C016091470180914801609304018093EC
:100A0000050184E690E00E94960A609102017091CF
:100A1000030180910401909105018617970744F422
:100A2000709305016093040184E690E00E94960AA9
:100A30008091040190910501853691054CF084E682
:100A400090E0909305018093040164E60E94960A69
:100A500081E090E00E9403019093050180930401DE
:100A60000E942C01809105018F93809104018F9346
:100A70001F930F931F927F92FF92EF920E94BE05E9
:100A8000C7010E94C5010FB6F894DEBF0FBECDBFEF
:100A900080915501882309F45AC064E081E00E94E6
:100AA0006C0189E391E00E94C50164E081E00E944D
:100AB0006C0160914701809148016093020180932D
:100AC000030188EC90E00E94960A60910401709105
:100AD000050180910201909103016817790744F4A0
:100AE000709303016093020188EC90E00E94960AE3
:100AF000809102019091030188974CF49092030138
:100B00008092020168E288EC90E00E94960A80E000
:100B100090E00E94030190930301809302010E94E0
:100B20002C01809103018F93809102018F931F9379
:100B30000F931F927F92FF92EF920E94BE05C70112
:100B40000E94C5010FB6F894DEBF0FBECDBF0E9454
:100B50002C01A8CEAA1BBB1B51E107C0AA1FBB1FBB
:100B6000A617B70710F0A61BB70B881F991F5A9539
:100B7000A9F780959095BC01CD010895AEE0B0E055
:100B8000E4ECF5E00C94C90B0D891E898F89988DD2
:100B900026E02C831A83098397FF02C080E090E847
:100BA00001979E838D83AE01455E5F4F698D7A8D7F
:100BB000CE0101960E9407064D815E8157FD0AC055
:100BC0002F813885421753070CF49A01F801E20F80
:100BD000F31F10822E96E4E00C94E50BAEE0B0E03B
:100BE000E4EFF5E00C94CB0B85E08C838B899C893A
:100BF0009A838983AE01495E5F4F6D897E89CE01FC
:100C000001960E9457092E96E2E00C94E70BACE0A7
:100C1000B0E0EDE0F6E00C94BB0B7C016B018A01C7
:100C2000FC0117821682838181FFBDC1CE0101962E
:100C30004C01F7019381F60193FD859193FF81911A
:100C40006F01882309F4ABC1853239F493FD859196
:100C500093FF81916F01853229F4B70190E00E94E2
:100C60000F0BE7CF512C312C20E02032A0F48B3237
:100C700069F030F4803259F0833269F420612CC07D
:100C80008D3239F0803339F4216026C0226024602F
:100C900023C0286021C027FD27C030ED380F3A302F
:100CA00078F426FF06C0FAE05F9E300D1124532E23
:100CB00013C08AE0389E300D1124332E20620CC000
:100CC0008E3221F426FD6BC1206406C08C3611F4EF
:100CD000206802C0883641F4F60193FD859193FFA8
:100CE00081916F018111C1CF982F9F7D95549330D1
:100CF00028F40C5F1F4FFFE3F9830DC0833631F0FA
:100D0000833771F0833509F05BC022C0F801808120
:100D100089830E5F1F4F44244394512C540115C006
:100D20003801F2E06F0E711CF801A080B18026FF3F
:100D300003C0652D70E002C06FEF7FEFC5012C8707
:100D40000E94C60A2C0183012C852F77222E17C002
:100D50003801F2E06F0E711CF801A080B18026FF0F
:100D600003C0652D70E002C06FEF7FEFC5012C87D7
:100D70000E94BB0A2C012C852068222E830123FCB3
:100D80001BC0832D90E048165906B0F4B70180E2ED
:100D900090E00E940F0B3A94F4CFF50127FC859167
:100DA00027FE81915F01B70190E00E940F0B311087
:100DB0003A94F1E04F1A51084114510471F7E5C01B
:100DC000843611F0893639F5F80127FF07C06081B4
:100DD0007181828193810C5F1F4F08C06081718196
:100DE000882777FD8095982F0E5F1F4F2F76B22EA4
:100DF00097FF09C090958095709561957F4F8F4FB3
:100E00009F4F2068B22E2AE030E0A4010E945A0BC6
:100E1000A82EA81844C0853729F42F7EB22E2AE0C8
:100E200030E025C0F22FF97FBF2E8F36C1F018F4C5
:100E3000883579F0B4C0803719F0883721F0AFC019
:100E40002F2F2061B22EB4FE0DC08B2D8460B82EE2
:100E500009C024FF0AC09F2F9660B92E06C028E063
:100E600030E005C020E130E002C020E132E0F801CE
:100E7000B7FE07C060817181828193810C5F1F4F33
:100E800006C06081718180E090E00E5F1F4FA40179
:100E90000E945A0BA82EA818FB2DFF77BF2EB6FE76
:100EA0000BC02B2D2E7FA51450F4B4FE0AC0B2FC4B
:100EB00008C02B2D2E7E05C07A2C2B2D03C07A2C3A
:100EC00001C0752C24FF0DC0FE01EA0DF11D8081CB
:100ED000803311F4297E09C022FF06C073947394F5
:100EE00004C0822F867809F0739423FD13C020FF7D
:100EF00006C05A2C731418F4530C5718732C73141F
:100F000068F4B70180E290E02C870E940F0B739485
:100F10002C85F5CF731410F4371801C0312C24FF41
:100F200012C0B70180E390E02C870E940F0B2C8544
:100F300022FF17C021FF03C088E590E002C088E7C8
:100F400090E0B7010CC0822F867859F021FD02C0D5
:100F500080E201C08BE227FD8DE2B70190E00E94A4
:100F60000F0BA51438F4B70180E390E00E940F0B3B
:100F70005A94F7CFAA94F401EA0DF11D8081B701CC
:100F800090E00E940F0BA110F5CF332009F451CE51
:100F9000B70180E290E00E940F0B3A94F6CFF70180
:100FA0008681978102C08FEF9FEF2C96E2E10C942F
:100FB000D70B20FD09C0FC0123FD05C022FF02C0A4
:100FC0007383628351834083089544FD10C046FDBE
:100FD00010C0DB01FC01AA0FBB1FEE1FFF1F109406
:100FE000D1F76A0F7B1F8E1F9F1F31E003C033E0D4
:100FF00001C034E0660F771F881F991F3150D1F769
:10100000620F711D811D911D08950F931F93CF9342
:10101000DF938C01C8010E94D10AEC0197FD08C042
:101020000E94A80A892BB1F7B801CE010E94410B9A
:10103000CE01DF91CF911F910F9108958F929F92D2
:10104000AF92CF92DF92EF92FF920F931F93CF93C5
:10105000DF93EC01A62E4A01022F0E94D10AAC01B7
:1010600055274B32510521F04D32510551F400689E
:10107000AA9411F480E067C0CE010E94D10A97FDC6
:10108000F9CF102F1D7F302F307301F58033F1F42D
:10109000FF24FA94FA0C09F442C0CE010E94D10A4E
:1010A00097FD3DC0382F3F7D383551F41264AA9426
:1010B000AA94A9F1CE010E94D10A97FF07C02FC0C0
:1010C00006FF02C0126001C01261AF2CC12CD12CEE
:1010D000760120ED280F283080F014FF04C0BE01F7
:1010E0000E94410B19C02A3040F016FFF8CF2F7D27
:1010F0003FEE320F363098F72750412FC701B60127
:101100000E94E5076B017C011260AA9459F0CE01A0
:101110000E94D10A97FFDDCF11FD04C0ABCFC12CD7
:10112000D12C760117FF08C0F094E094D094C094BD
:10113000C11CD11CE11CF11C212FB701A601C40167
:101140000E94D90781E0DF91CF911F910F91FF900D
:10115000EF90DF90CF90AF909F908F900895A1E295
:10116000B0E0E5EBF8E00C94C00B5C017A018E0175
:101170000F5F1F4F680180E2D8011D928A95E9F741
:10118000F501738040E050E0812CB0E0912C81E0CB
:1011900090E0F90173FCA59173FEA1918F017A2F64
:1011A0009F01A11103C080E090E07DC0AE3519F42D
:1011B0004115510559F1E92DF0E0E417F5073CF42C
:1011C000AD3569F1AD3219F4BB2319F103C0B1118A
:1011D00001C08A2EE72FE695E695E69586010E0F6B
:1011E000111DF801A72FA7708C0102C0000F111F5D
:1011F000AA95E2F7D801B081BA2BB083781559F0DF
:10120000781510F47F5FE6CF7150E4CF9924939462
:1012100003C0B1E001C0B0E04F5F5F4FBACFBB2366
:1012200019F08E8180628E83911003C0992493946B
:1012300015C0F601CE018196208120952193E817F3
:10124000F907D1F7F3CFE114F10429F0D7018C931A
:10125000F70131967F01615001F1912CC50169A31D
:101260000E94D10A69A197FD16C0282F26952695C0
:101270002695F601E20FF11D208130E0AC014770A8
:10128000552702C0359527954A95E2F720FDDBCF1B
:10129000B5010E94410B911086CFE114F10411F0C9
:1012A000D7011C92C801A196EDE00C94DC0B4F9283
:1012B0005F927F928F929F92AF92BF92CF92DF9276
:1012C000EF92FF920F931F93CF93DF931F92CDB7AF
:1012D000DEB78C012B017A01FC0117821682A12C4A
:1012E000F801D380F201D3FC8591D3FE8191382F90
:1012F0002F01882309F4FCC090E039830E94A80ADA
:101300003981892B21F0C8010E940508E9CF3532C7
:1013100041F4F201D3FC3591D3FE31912F013532E6
:1013200069F4C80139830E94D10A398197FDDEC072
:101330003817B1F2B8010E94410BDAC03A3241F4D9
:10134000D3FC3591D3FE31912F01BB24B39401C05E
:10135000B12C712C20ED230F2A3090F4FB2DF2607C
:10136000BF2E672D70E080E090E040E20E94E5072C
:10137000762EF201D3FC3591D3FE31912F01EACFC5
:10138000B1FE03C0711003C0B3C077247A9438361D
:1013900019F03C3661F014C0F201D3FC3591D3FE54
:1013A00031912F01383661F4FB2DF860BF2E8B2D63
:1013B0008460B82EF201D3FC3591D3FE31912F0118
:1013C000332309F495C0632F70E088E690E03983F9
:1013D0000E94B00A3981892B09F48AC0B0FC07C089
:1013E000F701C080D180C70102967C0102C0C12CE8
:1013F000D12C3E3651F4F8014681578160E070E00F
:101400002B2DC6010E94D9076BCF3336A1F4B1FC56
:1014100002C077247394C8010E94D10A97FD66C068
:10142000C114D10429F0F6018083C60101966C0134
:101430007A9489F757C03B3559F49201A601672D7C
:10144000C8010E94AF082C01009709F04BC045C0AD
:10145000C80139830E940508398197FD47C03F368E
:1014600069F128F4343631F1393679F12BC033374C
:1014700069F03537F9F026C0C114D10429F0F6011E
:101480008082C60101966C017A9471F0C8010E94B5
:10149000D10A4C0197FD08C00E94A80A892B61F36C
:1014A000B801C4010E94410BC114D104D9F0F60166
:1014B000108218C0FB2DF062BF2E07C08B2D8061FB
:1014C000B82E03C09B2D9064B92E2B2DA601672D3D
:1014D000C8010E941E08811105C0F8018381807334
:1014E00029F406C0B0FCFCCEA394FACEAA2019F0D1
:1014F0008A2D90E002C08FEF9FEF0F90DF91CF9188
:101500001F910F91FF90EF90DF90CF90BF90AF9021
:101510009F908F907F905F904F900895F999FECFA4
:1015200092BD81BDF89A992780B50895262FF99923
:10153000FECF92BD81BDF89A019700B4021639F032
:101540001FBA20BD0FB6F894FA9AF99A0FBE089503
:1015500091110EC1803219F089508550D0F708954D
:10156000FC010590061621F00020D9F7C00108956E
:101570003197CF010895FC01059061507040011032
:10158000D8F7809590958E0F9F1F0895FC016150AC
:10159000704001900110D8F7809590958E0F9F1F95
:1015A0000895CF93DF93EC012B8120FF33C026FFFA
:1015B0000AC02F7B2B838E819F8101969F838E8310
:1015C0008A8190E029C022FF0FC0E881F9818081E3
:1015D000992787FD9095009719F420622B831AC0F4
:1015E0003196F983E8830EC0EA85FB85099597FF5C
:1015F00009C02B81019611F480E101C080E2822BA9
:101600008B8308C02E813F812F5F3F4F3F832E8306
:10161000992702C08FEF9FEFDF91CF9108950F932D
:101620001F93CF93DF93182F092FEB018B8181FD3F
:1016300003C08FEF9FEF20C082FF10C04E815F81FB
:101640002C813D81421753077CF4E881F9819F0189
:101650002F5F3F4F39832883108306C0E885F985C3
:10166000812F0995892B29F72E813F812F5F3F4FCD
:101670003F832E83812F902FDF91CF911F910F9168
:101680000895FB01238120FF12C026FD10C08F3F6B
:101690003FEF930761F082832F7D206423832681AF
:1016A00037812150310937832683992708958FEF99
:1016B0009FEF0895FA01AA27283051F1203181F1D6
:1016C000E8946F936E7F6E5F7F4F8F4F9F4FAF4F4A
:1016D000B1E03ED0B4E03CD0670F781F891F9A1F5D
:1016E000A11D680F791F8A1F911DA11D6A0F711D11
:1016F000811D911DA11D20D009F468943F912AE01D
:10170000269F11243019305D3193DEF6CF01089504
:10171000462F4770405D4193B3E00FD0C9F7F6CF35
:10172000462F4F70405D4A3318F0495D31FD4052FD
:10173000419302D0A9F7EACFB4E0A6959795879593
:1017400077956795BA95C9F7009761057105089572
:101750009B01AC010A2E069457954795379527951E
:10176000BA95C9F7620F731F841F951FA01D0895B6
:101770009927882708952F923F924F925F926F92F8
:101780007F928F929F92AF92BF92CF92DF92EF9211
:10179000FF920F931F93CF93DF93CDB7DEB7CA1B92
:1017A000DB0B0FB6F894DEBF0FBECDBF09942A88BD
:1017B000398848885F846E847D848C849B84AA8465
:1017C000B984C884DF80EE80FD800C811B81AA81F2
:1017D000B981CE0FD11D0FB6F894DEBF0FBECDBFBD
:0817E000ED010895F894FFCF1C
:1017E8000100280064004A6F7365732047616C64C8
:1017F800616D657A0050726F6A6563740048696745
:10180800683A002564004C6F773A00546D703A00CE
:10181800526D743A003F00202020202000402B25E4
:041828006424000034
:00000001FF
